S00C0000546573742E7372656378
S11300000C9434000C9449000C9449000C9449005D
S11300100C9449000C9449000C9449000C94490038
S11300200C9449000C9449000C9449000C94490028
S11300300C9449000C9449000C9449000C94490018
S11300400C9449000C9449000C9449000C94490008
S11300500C9449000C9449000C9449000C944900F8
S11300600C9449000C94490011241FBECFEFD8E032
S1130070DEBFCDBF11E0A0E0B1E0EEECF1E002C0E4
S113008005900D92A235B107D9F70E94BA000C94DD
S1130090E5000C9400008BB940984198429A85E0A1
S11300A08A95F1F7000042988FE891E00197F1F703
S11300B000C0000008958BB9409A4198429A85E0A7
S11300C08A95F1F7000042988FE891E00197F1F7E3
S11300D000C0000008958FEF8AB987B942988FE372
S11300E09FE10197F1F700C0000088E30E944B00F4
S11300F08EE00E944B0081E00E944B008FE39FE161
S11301000197F1F700C0000086E00E944B000895BB
S11301100F931F93CF93FC018081882359F08F01A3
S1130120C0E00E945B00CF5FF801EC0FF11D8081FD
S11301308111F7CFCF911F910F910895CF93DF9342
S113014000D0CDB7DEB790E8998390EC9A838150C4
S1130150FE01E60FF11D9081890F0E944B008FE88C
S113016091E00197F1F700C000000F900F90DF912C
S1130170CF9108950E946B0080E091E00E94880076
S11301802FEF89E698E1215080409040E1F700C0CC
S1130190000081E00E944B0082E00E944B008AE054
S11301A091E00E9488002FEF89E698E12150804079
S11301B09040E1F700C0000061E081E00E949E00F1
S11101C080E491E00E948800FFCFF894FFCF06
S11301CE44656D6F20636F646500486572652069D0
S11301DE7320736F6D65206D6F726520746578740E
S11301EE2074686174206F76657272756E73206107
S11301FE2073696E676C65206C696E652E2E2E00F9
S113020E5465787420666F72206C696E6520312E89
S105021E0000DA
S9030000FC
