S00B00004441352E737265635F
S11300000C9434000C9449000C9449000C9449005D
S11300100C9449000C9449000C9449000C94490038
S11300200C9449000C9449000C9449000C94490028
S11300300C9449000C9449000C9449000C94490018
S11300400C9449000C9449000C9449000C94490008
S11300500C9449000C9449000C9449000C944900F8
S11300600C9449000C94490011241FBECFEFD8E032
S1130070DEBFCDBF11E0A0E0B1E0E8EFF4E002C0E4
S113008005900D92AA39B107D9F70E9435010C9455
S11300907A020C94000015B84498459880FD03C07A
S11300A095B195B901C0289A81FD03C095B195B960
S11300B001C0299A82FD03C095B195B901C02A9A5D
S11300C083FD03C095B195B901C02B9A84FD03C08B
S11300D095B195B901C02C9A85FD03C095B195B928
S11300E001C02D9A86FD03C098B198B901C0449A05
S11300F088231CF088B188B90895459A089590E042
S11301000E944B0040984198429A85E08A95F1F705
S1130110000042988FE891E00197F1F700C00000D9
S113012008958FEF84B987B942988FE39FE10197CF
S1130130F1F700C0000088E30E947F008EE00E9477
S11301407F008FE39FE10197F1F700C0000086E094
S11301500E947F000895CF93DF9300D000D0CDB7E5
S1130160DEB790E8998390EC9A8394E99B8394EDAD
S11301709C838150FE01E60FF11D9081890F0E943E
S11301807F008FE891E00197F1F700C000000F9025
S11301900F900F900F90DF91CF91089581E00E940E
S11301A07F0082E00E947F002FEF89E698E12150D2
S11301B080409040E1F700C00000089590E00E9464
S11301C04B00409A4198429A85E08A95F1F70000E5
S11301D042988FE891E00197F1F700C0000008957C
S11301E00F931F93CF93FC018081882359F08F01D3
S11301F0C0E00E94DE00CF5FF801EC0FF11D8081AA
S11302008111F7CFCF911F910F910895CF93DF9371
S1130210EC010E9491000E94CE00CE010E94F000E9
S113022062E081E00E94AB0082E791E00E94F0006E
S11302302FEF87EA91E6215080409040E1F700C01B
S11302400000DF91CF910895EC010E9491000E947B
S1130250CE00CE010E94F00062E081E00E94AB007B
S11302608EE791E00E94F000FFCFCF93DF9300D0A0
S113027000D0CDB7DEB70E9491000E94CE008FE877
S113028091E00E94F00019821A821B821C82B12C18
S11302900F2EF0EF9F2EF02DAA24AA941FEE0FED3F
S11302A00F2EFFEBDF2EF02D0F2EFFE7CF2EF02DBC
S11302B00F2EF3E06F2EF02DCE0101967C01712CF0
S11302C0812C01C0B12CB11010C00E9491000E9479
S11302D0CE008FE891E00E94F00062E081E00E948D
S11302E0AB001A821B821C821D829AB8ABB88BB1F8
S11302F08F708BB989B18F708F30C9F79FEF29EF59
S113030080E0915020408040E1F700C0000099B1A6
S11303109F709F3099F39FEF29EF80E09150204028
S11303208040E1F700C0000089B18F708F3031F355
S11303301BB99FEF29EF80E0915020408040E1F706
S113034000C0000099B19F709F3009F0B4C00BB990
S11303509FEF29EF80E0915020408040E1F700C0FA
S1130360000099B19F709F3009F0A7C0DBB89FEFE0
S113037029EF80E0915020408040E1F700C0000068
S113038099B19F709F3009F09AC0CBB89FEF29EFC5
S113039080E0915020408040E1F700C0000099B116
S11303A09F709F3029F28DC039812A81872D982D25
S11303B081309105D1F08230910559F1009709F00F
S11303C081CF353309F483C08E2D0E94DE009FEF68
S11303D023ED80E3915020408040E1F700C000000D
S11303E0C7010E940601B12C6ECF223309F46FC0FD
S11303F08E2D0E94DE009FEF23ED80E3915020407C
S11304008040E1F700C00000C7010E940601B12C42
S11304105ACF8B81873389F08E2D0E94DE009FEFA7
S113042023ED80E3915020408040E1F700C00000BC
S1130430C7010E940601B12C46CFCE0101960E944D
S113044024019E3069F4F0E0EE0FFF1FEE0FFF1F52
S1130450E050FF4F8081F701EB0DF11D808339C01F
S11304609D3069F4F0E0EE0FFF1FEE0FFF1FE05028
S1130470FF4F8181F701EB0DF11D80832AC09B3072
S113048069F4F0E0EE0FFF1FEE0FFF1FE050FF4F87
S11304908281F701EB0DF11D80831BC0F0E0EE0FAC
S11304A0FF1FEE0FFF1FE050FF4F8381F701EB0D9D
S11304B0F11D80830EC0E0E005C0E1E003C0E2E08E
S11304C001C0E62D22E02B1508F46ECFBACF0196B9
S11304D06FCFF701EB0DF11D80810E94DE008FEFDD
S11304E099E628E1815090402040E1F700C00000E7
S10B04F0B394E9CEF894FFCFA8
S11304F83134372A3235383033363923414243448C
S113050844656D6F20636F64650048657265206992
S11305187320736F6D65206D6F72652074657874D0
S11305282074686174206F76657272756E732061C9
S11305382073696E676C65206C696E652E2E2E00BB
S11305485465787420666F72206C696E6520312E4C
S1130558005465787420666F72206C696E65203269
S11305682E0057726F6E672050696E212100416317
S113057863657373204772616E7465642121004951
S10D05886E7075742050696E000057
S9030000FC
