:020000020000FC
:040000000C9422003A
:100040000C94470033272224772786E06FEF6AB9A4
:1000500061E367B926BC24BC75E075BD71E070939F
:100060006E007894FFCF95E0191719F490E11127ED
:10007000492708959AE0291719F490E22227592771
:10008000089595B390FFFDCF91E095BB089598E159
:10009000891701F58827992795BD91E095BB9FEFBA
:1000A0003927321569F0139523950E9433000E9479
:1000B0003A0099279160942B952B98B903950BB929
:1000C00098B171E0972798B975E075BD71E07093AC
:0C00D0006E0003C0839591E095BB18956D
:00000001FF
