:100000000C9434000C9446000C9446000C9446006A
:100010000C9446000C9446000C9446000C94460048
:100020000C9446000C9446000C9446000C94460038
:100030000C9446000C9446000C9477000C944600F7
:100040000C9446000C9446000C9446000C94460018
:100050000C9446000C9446000C9446000C94460008
:100060000C9446000C94460011241FBECFEFD8E03C
:10007000DEBFCDBF21E0A0E0B1E001C01D92A53000
:10008000B207E1F70E9448000C94E7000C940000CE
:100090008FEF8AB981E387B918B81BB88091020144
:1000A0008F3F11F41092020114BC8DE085BD16BC87
:1000B0008FEF87BDEEE6F0E08081826080837894E8
:1000C000FFCF88B1807190910401953021F4109296
:1000D000040190E18927089588B18072909103010D
:1000E0009A3021F41092030190E2892708951F921B
:1000F0000F920FB60F9211242F933F934F935F935C
:100100006F937F938F939F93AF93BF93CF93EF930F
:10011000FF9380910101863009F041C010920101E6
:100120008FE586BDA89BFECF85B3817085BB15BCCE
:10013000809100018130E9F4109200018091020168
:100140008F5F80930201809103018F5F8093030191
:10015000809104018F5F809304010E946100C82F89
:100160000E946C008C2B816088B9809102018BB950
:100170000BC0811109C081E08093000190910201C0
:100180009BB998B1892788B98DE085BD16BC8FEFE2
:1001900087BDEEE6F0E080818260808306C08F5FDD
:1001A0008093010185B3827085BBFF91EF91CF9160
:1001B000BF91AF919F918F917F916F915F914F917F
:1001C0003F912F910F900FBE0F901F901895F894AC
:0201D000FFCF5F
:00000001FF
