:100000000C9434000C943E000C943E000C943E0082
:100010000C943E000C943E000C943E000C943E0068
:100020000C943E000C943E000C943E000C943E0058
:100030000C943E000C943E000C943E000C943E0048
:100040000C943E000C943E000C9457000C943E001F
:100050000C943E000C943E000C943E000C943E0028
:100060000C943E000C943E0011241FBECFEFD8E04C
:10007000DEBFCDBF0E9454000C946B000C940000B6
:100080001092C50087E68093C400E1ECF0E0808127
:1000900088618083A2ECB0E08C9186608C93808133
:1000A00080688083789408950E944000FFCF1F925B
:1000B0000F920FB60F9211248F93EF93FF93E6ECFC
:1000C000F0E080818083FF91EF918F910F900FBEC0
:0A00D0000F901F901895F894FFCFD1
:00000001FF
