:020000020000FC
:100000003327222477276FEF6AB961E367B926BCEB
:1000100024BC71E0746075BDAA278EE026BC0E94E6
:100020004200A395A817D4F3AFE5A6BD95B390FF02
:10003000FDCF91E095BB992795BD9FEF39273215EC
:1000400069F0139523950E9434000E943B00992784
:100050009160942B952B98B903950BB998B1A1E0B9
:100060009A2798B9D4CFFFCF95E0191719F490E1EA
:100070001127492708959AE0291719F490E22227B9
:100080005927089595B390FFFDCF91E095BB089552
:00000001FF
