S00D00004441325F332E73726563CE
S11300000C9434000C9446000C9446000C94460066
S11300100C9446000C9446000C9446000C94460044
S11300200C9446000C9446000C9446000C94460034
S11300300C9446000C9446000C9446000C94460024
S11300400C9446000C9446000C9446000C94460014
S11300500C9446000C9446000C9446000C94460004
S11300600C9446000C94460011241FBECFEFD8E038
S1130070DEBFCDBF21E0A0E0B1E001C01D92A230FF
S1130080B207E1F70E945E000C94A4000C940000F7
S113009088B1807190910101953021F41092010191
S11300A090E18927089588B18072909100019A3077
S11300B021F41092000190E2892708958FEF8AB904
S11300C081E387B918B81BB820E0C0E00F2EF5E033
S11300D0FF2EF02D0EE01FE5EE24E39403C0CF3F86
S11300E009F4C0E014BCF5BC902F16BCA89BFECF4D
S11300F085B3817085BB9150C1F716BDA89BFECF17
S113010085B3817085BB15BC2130B1F4CF5F80917C
S113011000018F5F80930001809101018F5F8093C4
S113012001010E944800D82F0E9453008D2B81604A
S113013088B9CBB920E0D3CF2111D1CFCBB988B1C5
S10F01408E2588B92E2DCBCFF894FFCF6C
S9030000FC
