:100000000C9434000C943E000C943E000C943E0082
:100010000C943E000C943E000C943E000C943E0068
:100020000C943E000C943E000C943E000C943E0058
:100030000C943E000C943E000C943E000C943E0048
:100040000C943E000C943E000C943E000C943E0038
:100050000C943E000C943E000C943E000C943E0028
:100060000C943E000C943E0011241FBECFEFD8E04C
:10007000DEBFCDBF0E9440000C94D0000C94000065
:1000800083EA84BD81E085BD93E89093B0008093BE
:10009000B10080E68AB988E084B920E030E0C4E6A7
:1000A000D0E0E3EBF0E0C901BE010E94A8009FEFA1
:1000B000960F97BD4FE956E881E04150504080408F
:1000C000E1F700C0000098BD4FE956E881E04150DB
:1000D00050408040E1F700C0000090839FE946E86F
:1000E00051E0915040405040E1F700C00000365FC1
:1000F000211584E63807B9F62AE5C4E6D0E0E3EB3B
:10010000F0E0922F80E0BE010E94A8008FEF860FE2
:1001100087BD9FE936E841E0915030404040E1F72B
:1001200000C0000088BD5FE996E831E05150904082
:100130003040E1F700C0000080834FE956E881E0DD
:10014000415050408040E1F700C000002A50D9CF14
:1001500097FB072E16F4009407D077FD09D00E9474
:10016000BC0007FC05D03EF4909581959F4F089503
:10017000709561957F4F0895AA1BBB1B51E107C085
:10018000AA1FBB1FA617B70710F0A61BB70B881F27
:10019000991F5A95A9F780959095BC01CD010895B6
:0401A000F894FFCF01
:00000001FF
