:100000000C9434000C943E000C943E000C943E0082
:100010000C943E000C943E000C943E000C943E0068
:100020000C943E000C943E000C943E000C943E0058
:100030000C943E000C943E000C943E000C943E0048
:100040000C943E000C943E000C943E000C943E0038
:100050000C943E000C943E000C943E000C943E0028
:100060000C943E000C943E0011241FBECFEFD8E04C
:10007000DEBFCDBF0E9459000C947A020C940000A0
:1000800087E893E1909387008093860082E88093CD
:1000900080008BE180938100089587B187B9219A10
:1000A00080E680937C0087E880937A0010927B0042
:1000B00008950E944D000E944000CAE7D0E00F2E34
:1000C000F9E7EF2EF12CF02D0F2EF8E8CF2ED12CE2
:1000D000F02D0F2EF1E6AF2EB12CF02D888180642B
:1000E0008883888184FFFDCFF701808190E0880FAD
:1000F000991F8017910721F0008110E0000F111F58
:10010000B801660F771F660F771F600F711F80E0C1
:1001100090E00E945B0120E030E040E85AE30E945A
:100120000D0220E030E04BED53E40E940D0220E090
:1001300030E042EC52E40E94B4002B013C0120E08C
:1001400030E042EC52E40E942001882324F4F601BE
:10015000B182A082C3CFC301B2010E942501F60182
:1001600071836083BBCF5058BB27AA270E94CB0066
:100170000C94D3010E94C50138F00E94CC0120F0FC
:1001800039F49F3F19F426F40C94C2010EF4E09563
:10019000E7FB0C94BC01E92F0E94E40158F3BA1765
:1001A000620773078407950720F079F4A6F50C948D
:1001B00006020EF4E0950B2EBA2FA02D0B01B9010B
:1001C00090010C01CA01A0011124FF27591B99F0CD
:1001D000593F50F4503E68F11A16F040A22F232FD9
:1001E000342F4427585FF3CF469537952795A79529
:1001F000F0405395C9F77EF41F16BA0B620B730BD0
:10020000840BBAF09150A1F0FF0FBB1F661F771F40
:10021000881FC2F70EC0BA0F621F731F841F48F4F5
:10022000879577956795B795F7959E3F08F0B0CF7E
:100230009395880F08F09927EE0F97958795089565
:100240000E94980108F481E008950E942C016894AE
:10025000B1110C94070208950E94EC0188F09F5799
:1002600098F0B92F9927B751B0F0E1F0660F771FDA
:10027000881F991F1AF0BA95C9F714C0B13091F0D0
:100280000E940602B1E008950C940602672F782FB1
:100290008827B85F39F0B93FCCF386957795679595
:1002A000B395D9F73EF490958095709561957F4F01
:1002B0008F4F9F4F0895E89409C097FB3EF49095A7
:1002C0008095709561957F4F8F4F9F4F9923A9F02F
:1002D000F92F96E9BB279395F695879577956795BE
:1002E000B795F111F8CFFAF4BB0F11F460FF1BC002
:1002F0006F5F7F4F8F4F9F4F16C0882311F096E995
:1003000011C0772321F09EE8872F762F05C0662342
:1003100071F096E8862F70E060E02AF09A95660FFB
:10032000771F881FDAF7880F9695879597F90895B4
:10033000990F0008550FAA0BE0E8FEEF16161706F6
:10034000E807F907C0F012161306E407F50798F05E
:10035000621B730B840B950B39F40A2661F0232B77
:10036000242B252B21F408950A2609F4A140A695F3
:100370008FEF811D811D089597F99F6780E870E0D8
:1003800060E008959FEF80EC089500240A9416160B
:10039000170618060906089500240A941216130673
:1003A000140605060895092E0394000C11F4882301
:1003B00052F0BB0F40F4BF2B11F460FF04C06F5F1D
:1003C0007F4F8F4F9F4F089557FD9058440F551FF3
:1003D00059F05F3F71F04795880F97FB991F61F0C7
:1003E0009F3F79F087950895121613061406551F3E
:1003F000F2CF4695F1DF08C0161617061806991FAA
:10040000F1CF86957105610508940895E894BB279E
:1004100066277727CB0197F908950E9420020C9454
:10042000D3010E94C50138F00E94CC0120F0952331
:1004300011F00C94BC010C94C20111240C9407021D
:100440000E94E40170F3959FC1F3950F50E0551F92
:10045000629FF001729FBB27F00DB11D639FAA2719
:10046000F00DB11DAA1F649F6627B00DA11D661F68
:10047000829F2227B00DA11D621F739FB00DA11D89
:10048000621F839FA00D611D221F749F3327A00D43
:10049000611D231F849F600D211D822F762F6A2FDF
:1004A00011249F5750409AF0F1F088234AF0EE0F44
:1004B000FF1FBB1F661F771F881F91505040A9F771
:1004C0009E3F510580F00C94BC010C9407025F3FE5
:1004D000E4F3983ED4F3869577956795B795F795AD
:1004E000E7959F5FC1F7FE2B880F911D9695879525
:0804F00097F90895F894FFCF7D
:00000001FF
