S0120000554152545F534552564F2E73726563E8
S11300000C9434000C9451000C9451000C94510045
S11300100C9451000C9451000C9451000C94510018
S11300200C9451000C9451000C9451000C94510008
S11300300C9451000C9451000C9451000C945100F8
S11300400C9451000C9451000C9455010C945100E3
S11300500C9451000C9451000C9451000C945100D8
S11300600C9451000C94510011241FBECFEFD8E022
S1130070DEBFCDBF11E0A0E0B1E0E4E8F9E002C0EA
S113008005900D92A032B107D9F721E0A0E2B1E0CA
S113009001C01D92AE32B207E1F70E94F5000C9444
S11300A0C0040C9400001092C50087E68093C4003D
S11300B0E1ECF0E0808188608083808180618083CE
S11300C0E2ECF0E080818F77808380818F7B808376
S11300D0808110828081866080830895CF93C82FA9
S11300E08A3019F48DE00E946E00E0ECF0E080812B
S11300F085FFFDCFC093C600CF910895CF93DF93C2
S1130100EC018881882331F021960E946E00899148
S11301108111FBCFDF91CF910895E1E8F0E0808178
S113012080618083808188608083E0E8F0E0808162
S11301308260808380818E7F80830895E1E8F0E08F
S113014080818B7F808380818260808380818160D5
S11301508083089587E893E19093870080938600D5
S113016084B1866084B980EA809380000E948D0007
S11301700E949E000895BC01990F880B990B0E9460
S1130180C70320E030E044E353E40E941D0320E071
S113019030E042E853E40E9453040E948F03072E88
S11301A0000C880B990B0E94C70320E030E045E760
S11301B053E40E94B1020E948F03CB010895FC0115
S11301C006961192E817F907E1F7089584B1806360
S11301D084B92AE030E090E385B1892785B92150BC
S11301E03109D1F785B185B908950E94AA0085EF38
S11301F090E0909389008093880090938B00809383
S11302008A000E94E6000E945300E1ECF0E0808145
S1130210806880837894FFCF8130910569F08230C3
S1130220910591F0892BD9F480912601882311F04E
S11302302C9A08952C98089580912701882311F011
S11302402D9A08952D98089580912801882321F0EE
S113025085B1806385B9089585B18F7C85B908958A
S1130260FC01408150E04053510984E6849FB00171
S1130270859F700D11249181292F30E0215331097C
S1130280C901880F991F220F331F220F331F220F1A
S1130290331F280F391FC901860F971F428150E071
S11302A040535109840F951F08951F920F920FB662
S11302B00F9211242F933F934F935F936F937F93E8
S11302C08F939F93AF93BF93CF93EF93FF93C0917B
S11302D0C6008C2F0E946E008FE39FE10197F1F717
S11302E000C0000080912B0190912C01892B71F5A5
S11302F0C053C23089F0C330E1F0C13009F01EC1EF
S113030010922D0180912B0190912C0101969093D4
S11303102C0180932B0112C181E080932D018091E7
S11303202B0190912C01019690932C0180932B0129
S113033005C182E080932D0180912B0190912C01C5
S1130340019690932C0180932B01F8C080912B018E
S113035090912C01019709F052C0C03311F580919E
S11303602D01813059F018F0823079F015C01092C7
S1130370260180E090E00E940C0137C01092270112
S113038081E090E00E940C0130C01092280182E0CC
S113039090E00E940C0129C086E091E00E947E005A
S11303A024C080912D01813061F018F0823089F0F1
S11303B018C081E08093260180E090E00E940C0147
S11303C014C081E08093270181E090E00E940C0139
S11303D00CC081E08093280182E090E00E940C012F
S11303E004C086E091E00E947E0080912B019091F0
S11303F02C01019690932C0180932B019FC0809136
S11304002B0190912C01029709F098C08091290149
S113041090912A0103970CF481C080E191E00E943D
S11304207E0080E291E00E947E0080E291E00E94E2
S113043030010E94BB009C0190912D019130F1F09C
S113044018F09230A9F159C0253F31053CF485EFED
S113045090E090938900809388004FC02A3F91E0F8
S113046039073CF089EF91E09093890080938800EC
S113047044C030938900209388003FC0253F310554
S11304803CF485EF90E090938B0080938A0035C014
S11304902A3F81E038073CF089EF91E090938B008C
S11304A080938A002AC030938B0020938A0025C051
S11304B0253F31055CF485EF90E090938B008093A9
S11304C08A00909389008093880017C02A3F91E0A6
S11304D039075CF089EF91E090938B0080938A0058
S11304E0909389008093880008C030938B002093F8
S11304F08A0030938900209388008DE191E00E9466
S11305007E0080E291E00E94DF0010922C011092A4
S11305102B0110922A011092290110C0E0912901A7
S1130520F0912A01E05EFE4FC083809129019091F1
S11305302A01019690932A0180932901FF91EF915A
S1130540CF91BF91AF919F918F917F916F915F9167
S11305504F913F912F910F900FBE0F901F901895C0
S11305605058BB27AA270E94C8020C9419040E9461
S11305700B0438F00E94120420F039F49F3F19F460
S113058026F40C9408040EF4E095E7FB0C940204A2
S1130590E92F0E942A0458F3BA17620773078407E5
S11305A0950720F079F4A6F50C944C040EF4E0952C
S11305B00B2EBA2FA02D0B01B90190010C01CA0119
S11305C0A0011124FF27591B99F0593F50F4503EC4
S11305D068F11A16F040A22F232F342F4427585FB6
S11305E0F3CF469537952795A795F0405395C9F7CE
S11305F07EF41F16BA0B620B730B840BBAF0915086
S1130600A1F0FF0FBB1F661F771F881FC2F70EC024
S1130610BA0F621F731F841F48F4879577956795F7
S1130620B795F7959E3F08F0B0CF9395880F08F0E3
S11306309927EE0F9795879508950E9431030C949E
S113064019040E94120458F00E940B0440F029F48B
S11306505F3F29F00C94020451110C944D040C9446
S113066008040E942A0468F39923B1F3552391F3F3
S1130670951B550BBB27AA2762177307840738F00D
S11306809F5F5F4F220F331F441FAA1FA9F335D06A
S11306900E2E3AF0E0E832D091505040E695001C1E
S11306A0CAF72BD0FE2F29D0660F771F881FBB1FD8
S11306B0261737074807AB07B0E809F0BB0B802DB6
S11306C0BF01FF2793585F4F3AF09E3F510578F0E2
S11306D00C9402040C944D045F3FE4F3983ED4F36D
S11306E0869577956795B795F7959F5FC9F7880FB6
S11306F0911D9695879597F90895E1E0660F771F08
S1130700881FBB1F621773078407BA0720F0621B98
S1130710730B840BBA0BEE1F88F7E09508950E94C3
S113072096036894B1110C944D0408950E94320408
S113073088F09F5798F0B92F9927B751B0F0E1F09E
S1130740660F771F881F991F1AF0BA95C9F714C04E
S1130750B13091F00E944C04B1E008950C944C0423
S1130760672F782F8827B85F39F0B93FCCF3869587
S113077077956795B395D9F73EF4909580957095E4
S113078061957F4F8F4F9F4F0895E89409C097FB61
S11307903EF490958095709561957F4F8F4F9F4F54
S11307A09923A9F0F92F96E9BB279395F695879598
S11307B077956795B795F111F8CFFAF4BB0F11F45B
S11307C060FF1BC06F5F7F4F8F4F9F4F16C0882302
S11307D011F096E911C0772321F09EE8872F762F38
S11307E005C0662371F096E8862F70E060E02AF079
S11307F09A95660F771F881FDAF7880F9695879565
S113080097F9089597F99F6780E870E060E008958C
S11308109FEF80EC089500240A9416161706180614
S11308200906089500240A941216130614060506F0
S11308300895092E0394000C11F4882352F0BB0F81
S113084040F4BF2B11F460FF04C06F5F7F4F8F4FE4
S11308509F4F089557FD9058440F551F59F05F3F1F
S113086071F04795880F97FB991F61F09F3F79F0CE
S113087087950895121613061406551FF2CF469550
S1130880F1DF08C0161617061806991FF1CF8695D2
S11308907105610508940895E894BB2766277727B6
S11308A0CB0197F908950E9466040C9419040E94E0
S11308B00B0438F00E94120420F0952311F00C94DC
S11308C002040C94080411240C944D040E942A047C
S11308D070F3959FC1F3950F50E0551F629FF0018F
S11308E0729FBB27F00DB11D639FAA27F00DB11DA8
S11308F0AA1F649F6627B00DA11D661F829F222731
S1130900B00DA11D621F739FB00DA11D621F839FB7
S1130910A00D611D221F749F3327A00D611D231F8D
S1130920849F600D211D822F762F6A2F11249F57DB
S113093050409AF0F1F088234AF0EE0FFF1FBB1FDE
S1130940661F771F881F91505040A9F79E3F51059D
S113095080F00C9402040C944D045F3FE4F3983E41
S1130960D4F3869577956795B795F795E7959F5F47
S1130970C1F7FE2B880F911D9695879597F90895D9
S1070980F894FFCF15
S11309842564002566004E4F204348414E474500E8
S113099456616C756520526561643A20000D0A0045
S9030000FC
