S00E00004441335F44432E7372656378
S11300000C9434000C943E000C943E000C943E007E
S11300100C943E000C943E000C943E000C943E0064
S11300200C943E000C943E000C943E000C943E0054
S11300300C943E000C943E000C943E000C943E0044
S11300400C943E000C943E000C943E000C943E0034
S11300500C943E000C943E000C943E000C943E0024
S11300600C943E000C943E0011241FBECFEFD8E048
S1130070DEBFCDBF0E9474000C9470020C9400008B
S1130080219AE0E8F0E0808182688083E1E8F0E092
S113009080818B61808387E893E1909387008093CC
S11300A08600089587B187B987E880937A0080E451
S11300B080937C000895682F70E080E090E00E94B7
S11300C0770120E038E34CE955E40E94030220E084
S11300D030E048EC52E40E94D4000E944601709340
S11300E089006093880008958FE08AB90E945200C5
S11300F00E944000CAE7D0E008E710E00F2EF5E0C8
S1130100CF2EF02D0F2EEE24EA94F3E0FF2EF02DE7
S11301100F2EF3E0DF2EF02D8881806488838881A0
S113012084FFFDCFF801608171816130F2E07F07C7
S1130130B8F0DBB880E090E00E94750120E030E088
S113014048EC52E40E94030220E030EC4FE754E410
S11301500E94D4000E944601862F0E945B001AC0B0
S1130160CBB8C701861B970BBC0180E090E00E94CE
S1130170750120E030E048EC52E40E94030220E0E4
S113018030E040E85AE30E9403020E944601862FB1
S11301900E945B009FEDE2E2F2E09150E040F0400B
S11301A0E1F700C00000B8CF0E94E8000C94C90138
S11301B00E94C20158F00E94BB0140F029F45F3F45
S11301C029F00C94B20151110C94FD010C94B80166
S11301D00E94DA0168F39923B1F3552391F3951B37
S11301E0550BBB27AA2762177307840738F09F5F54
S11301F05F4F220F331F441FAA1FA9F335D00E2EC1
S11302003AF0E0E832D091505040E695001CCAF72D
S11302102BD0FE2F29D0660F771F881FBB1F2617F0
S113022037074807AB07B0E809F0BB0B802DBF01C7
S1130230FF2793585F4F3AF09E3F510578F00C9496
S1130240B2010C94FD015F3FE4F3983ED4F386952C
S113025077956795B795F7959F5FC9F7880F911DB7
S11302609695879597F90895E1E0660F771F881FA3
S1130270BB1F621773078407BA0720F0621B730B56
S1130280840BBA0BEE1F88F7E09508950E94E201F3
S113029088F09F5798F0B92F9927B751B0F0E1F043
S11302A0660F771F881F991F1AF0BA95C9F714C0F3
S11302B0B13091F00E94FC01B1E008950C94FC016E
S11302C0672F782F8827B85F39F0B93FCCF386952C
S11302D077956795B395D9F73EF490958095709589
S11302E061957F4F8F4F9F4F0895E89409C097FB06
S11302F03EF490958095709561957F4F8F4F9F4FF9
S11303009923A9F0F92F96E9BB279395F69587953C
S113031077956795B795F111F8CFFAF4BB0F11F4FF
S113032060FF1BC06F5F7F4F8F4F9F4F16C08823A6
S113033011F096E911C0772321F09EE8872F762FDC
S113034005C0662371F096E8862F70E060E02AF01D
S11303509A95660F771F881FDAF7880F9695879509
S113036097F9089597F99F6780E870E060E0089531
S11303709FEF80EC089500240A94161617061806B9
S11303800906089500240A94121613061406050695
S11303900895092E0394000C11F4882352F0BB0F26
S11303A040F4BF2B11F460FF04C06F5F7F4F8F4F89
S11303B09F4F089557FD9058440F551F59F05F3FC4
S11303C071F04795880F97FB991F61F09F3F79F073
S11303D087950895121613061406551FF2CF4695F5
S11303E0F1DF08C0161617061806991FF1CF869577
S11303F07105610508940895E894BB27662777275B
S1130400CB0197F908950E9416020C94C9010E9429
S1130410BB0138F00E94C20120F0952311F00C9426
S1130420B2010C94B80111240C94FD010E94DA016C
S113043070F3959FC1F3950F50E0551F629FF00133
S1130440729FBB27F00DB11D639FAA27F00DB11D4C
S1130450AA1F649F6627B00DA11D661F829F2227D5
S1130460B00DA11D621F739FB00DA11D621F839F5C
S1130470A00D611D221F749F3327A00D611D231F32
S1130480849F600D211D822F762F6A2F11249F5780
S113049050409AF0F1F088234AF0EE0FFF1FBB1F83
S11304A0661F771F881F91505040A9F79E3F510542
S11304B080F00C94B2010C94FD015F3FE4F3983E8C
S11304C0D4F3869577956795B795F795E7959F5FEC
S11304D0C1F7FE2B880F911D9695879597F908957E
S10704E0F894FFCFBA
S9030000FC
